S01200004B45595041445F6170702E73726563B4
S11300000C942A000C9447000C9447000C9447006D
S11300100C9447000C9447000C9447000C94470040
S11300200C9447000C9447000C9447000C94470030
S11300300C9447000C9447000C9447000C94470020
S11300400C9447000C9447000C9447000C94470010
S11300500C94470011241FBECFE5D8E0DEBFCDBF0E
S113006010E0A0E6B0E0E0EFFCE002C005900D92E5
S1130070AE37B107D9F710E0AEE7B0E001C01D928A
S1130080A039B107E1F70E94F5020C9476060C94AE
S1130090000080EF81BB8FE082BB08958FEE82BBAE
S11300A010927F008099AEC00CC040B39C0150E018
S11300B0082E02C0559547950A94E2F740FD08C002
S11300C002C020E030E02E593F4FF90180810895AD
S11300D0282F2F5F20937F0001968430910529F704
S11300E087EB9BE00197F1F700C000008FED82BB26
S11300F010927F00809980C00CC040B39C0150E0F6
S1130100082E02C0559547950A94E2F740FD08C0B1
S113011002C020E030E02E593F4FF9018481089558
S1130120282F2F5F20937F0001968430910529F7B3
S113013087EB9BE00197F1F700C000008FEB82BBD7
S113014010927F00809952C00CC040B39C0150E0D3
S1130150082E02C0559547950A94E2F740FD08C061
S113016002C020E030E02E593F4FF9018085089508
S1130170282F2F5F20937F0001968430910529F763
S113018087EB9BE00197F1F700C000008FE782BB8B
S113019010927F00809924C00CC040B39C0150E0B1
S11301A0082E02C0559547950A94E2F740FD08C011
S11301B002C020E030E02E593F4FF90184850895B4
S11301C0282F2F5F20937F0001968430910529F713
S11301D087EB9BE00197F1F700C0000080E00895F1
S11301E081E080937F0081E090E0D7CF81E080932D
S11301F07F0081E090E0A9CF81E080937F0081E0DF
S113020090E07BCF81E080937F0081E090E04DCF50
S1130210CF92DF92EF92FF920F931F93CF93DF93CE
S1130220FC0181818B3209F48BC08C3220F48A3238
S113023009F08BC06EC08D3209F473C08F3209F09F
S113024084C0C281CC2321F481E0809385007DC0E9
S11302502081822F6C2F0E945606992309F452C0E4
S113026081E080938800608170E080E090E00E94EB
S11302703D056B017C016C2F70E080E090E00E94F2
S11302803F059B01AC01C701B6010E94A904062FDA
S1130290172FD82FC92FE62EF72ED82EC92E862F2A
S11302A0912FAD2FBC2FBC01CD0120E030E040E800
S11302B05FE30E94CB051816A4F4802F912FAD2F75
S11302C0BC2FBC01CD0120E030E040E85FE30E9498
S11302D04404E62EF72ED82EC92E81E361E00E9455
S11302E06E038E2D9F2DAD2DBC2DBC01CD0120E0C4
S11302F030E048EC52E40E94CF050E94110560935F
S1130300890023C0822F6C2F0E9456068093890097
S11303101CC092818081989F802D11248093890034
S113032014C082819081981738F4891B80938900C6
S113033081E080938F0009C0981B9093890005C0C9
S113034092818081890F809389001092830080912B
S11303508900DF91CF911F910F91FF90EF90DF9073
S1130360CF900895CF9390918100913041F091E026
S11303709093850090917E00992391F073C0C1E021
S1130380C09387008DE361E00E946E03C0938000F8
S113039080916000909161000E940801805D14C109
S11303A08433B1F1853370F4813301F1823320F465
S11303B0803309F050C015C08233F1F0833309F063
S11303C04AC020C08733B1F1883330F4853331F12A
S11303D0863309F040C028C0883391F18933D9F5B8
S11303E035C010928B001092850035C091E0909337
S11303F08B00109285002FC092E090938B00109296
S1130400850029C093E090938B001092850023C04F
S113041094E090938B00109285001DC095E090931A
S11304208B001092850017C096E090938B00109279
S1130430850011C01092850097E090938B000BC04B
S11304401092850098E090938B0005C0109285006F
S113045099E090938B0090918B009093820091E0AF
S113046090938E0090917E009130A1F5909383003B
S11304708B3209F18C3218F48A3221F50CC08D329A
S113048091F08F32F9F4109285009FE290938C00E2
S11304901092830017C0109285009AE290938C000A
S11304A0109283000FC0109285009DE290938C00FF
S11304B01092830007C0109285009BE290938C00F9
S11304C01092830090918C0090539093820091E05D
S11304D09093840090918600913009F066C0843333
S11304E0B1F1853370F4813301F1823320F4803328
S11304F009F051C015C08233F1F0833309F04BC0C9
S113050020C08733B1F1883330F4853331F1863339
S113051009F041C028C0883391F18933E1F535C031
S11305201092850010928D0039C01092850081E0F0
S113053080938D0033C01092850082E080938D00FB
S11305402DC01092850083E080938D0027C0109207
S1130550850084E080938D0021C01092850085E0A1
S113056080938D001BC01092850086E080938D00DF
S113057015C01092850087E080938D000FC0109203
S1130580850088E080938D0009C01092850089E081
S113059080938D0003C081E08093850080918D005D
S11305A08093820081E08093810080918E0081306D
S11305B011F480937E0080918400813011F4809343
S11305C0860080918200805DCF9108951092810011
S11305D010927E001092860010928E001092840079
S11305E010928F001092880008950E9449000E9482
S11305F0CD038FEF8ABB02E710E00E944E00C82FA4
S1130600882309F457C080918700882331F081E062
S113061060E00E946E03109287008C2F0E94B2014A
S1130620C82F809185008130C9F460E00E946E0378
S1130630C8010E94F4038FE79FE4A2E18150904037
S1130640A040E1F700C0000081E060E00E946E037A
S11306501092850081E0809380002CC080918800F6
S1130660882351F08EE261E00E946E038C2F90E0AB
S1130670C0970E9404041EC08C2F90E0C0978A305B
S113068091051CF00E94040415C080918F008823FA
S113069049F08DE261E00E946E038C2F61E00E94BC
S11306A06E0308C080918F00882321F48C2F61E0B1
S11306B00E946E031092830080918000882321F0B1
S11306C00E94E602109280008FEF92E5A7E081502D
S11306D09040A040E1F700C000008FCF613011F4DA
S11306E0C19A01C0C198882314F4DF9A01C0DF982D
S11306F0982F929596959695937090FF02C0DE9AE6
S113070001C0DE98982F92959695977090FF02C03D
S1130710DD9A01C0DD98982F92959F7090FF02C0DA
S1130720DC9A01C0DC98C39AE7EBFBE03197F1F760
S113073000C00000C398E7EBFBE03197F1F700C07D
S11307400000982F96959695969590FF02C0DF9A93
S113075001C0DF98982F9695969590FF02C0DE9A77
S113076001C0DE98982F969590FF02C0DD9A01C0D3
S1130770DD9880FF02C0DC9A01C0DC98C39A87EB45
S11307809BE00197F1F700C00000C398E7EBFBE0A2
S11307903197F1F700C000000895D49AD59AD69AFB
S11307A0D79AB99ABA9ABB9AC29882E060E00E943A
S11307B06E0388E260E00E946E0381E060E00E94C4
S11307C06E038CE060E00E946E0386E060E00E94AD
S11307D06E0380E860E00E946E038FE59AEE019755
S11307E0F1F700C000000895CF93DF93EC018881F6
S11307F0882339F0219661E00E946E038991882351
S1130800D1F7DF91CF9108951F93CF93DF93CDB7A5
S1130810DEB72A970FB6F894DEBF0FBECDBF0097A0
S113082049F110E02AE030E0E12FFF27E7FDF095E1
S113083041E050E04C0F5D1FE40FF51FB9010E9429
S113084062068083862F972F1F5F009769F71150E8
S11308508AF0E12FFF27E7FDF09581E090E08C0F0F
S11308609D1FE80FF91F8081805D61E00E946E0387
S1130870115078F72A960FB6F894DEBF0FBECDBF9D
S1130880DF91CF911F9108955058BB27AA270ED00E
S113089048C139D130F03ED120F031F49F3F11F4FA
S11308A01EF42EC10EF4E095E7FB24C1E92F4AD1D2
S11308B080F3BA17620773078407950718F071F479
S11308C09EF562C10EF4E0950B2EBA2FA02D0B01FC
S11308D0B90190010C01CA01A0011124FF27591B81
S11308E099F0593F50F4503E68F11A16F040A22F87
S11308F0232F342F4427585FF3CF469537952795F8
S1130900A795F0405395C9F77EF41F16BA0B620BF6
S1130910730B840BBAF09150A1F0FF0FBB1F661F3D
S1130920771F881FC2F70EC0BA0F621F731F841F80
S113093048F4879577956795B795F7959E3F08F0A6
S1130940B3CF9395880F08F09927EE0F9795879565
S113095008950CD0E6C0DED040F0D5D030F021F4BC
S11309605F3F19F0C7C0511110C1CAC0EBD098F352
S11309709923C9F35523B1F3951B550BBB27AA271C
S113098062177307840738F09F5F5F4F220F331F8E
S1130990441FAA1FA9F333D00E2E3AF0E0E830D05A
S11309A091505040E695001CCAF729D0FE2F27D05D
S11309B0660F771F881FBB1F261737074807AB072B
S11309C0B0E809F0BB0B802DBF01FF2793585F4FA0
S11309D02AF09E3F510568F08DC0D7C05F3FECF30D
S11309E0983EDCF3869577956795B795F7959F5F65
S11309F0C9F7880F911D9695879597F90895E1E0B9
S1130A00660F771F881FBB1F621773078407BA0717
S1130A1020F0621B730B840BBA0BEE1F88F7E09572
S1130A20089598D088F09F5790F0B92F9927B7511F
S1130A30A0F0D1F0660F771F881F991F1AF0BA959E
S1130A40C9F712C0B13081F09FD0B1E008959CC0C5
S1130A50672F782F8827B85F39F0B93FCCF3869594
S1130A6077956795B395D9F73EF4909580957095F1
S1130A7061957F4F8F4F9F4F0895E89409C097FB6E
S1130A803EF490958095709561957F4F8F4F9F4F61
S1130A909923A9F0F92F96E9BB279395F6958795A5
S1130AA077956795B795F111F8CFFAF4BB0F11F468
S1130AB060FF1BC06F5F7F4F8F4F9F4F16C088230F
S1130AC011F096E911C0772321F09EE8872F762F45
S1130AD005C0662371F096E8862F70E060E02AF086
S1130AE09A95660F771F881FDAF7880F9695879572
S1130AF097F9089597F99F6780E870E060E008959A
S1130B009FEF80EC089500240A9416161706180621
S1130B100906089500240A941216130614060506FD
S1130B200895092E0394000C11F4882352F0BB0F8E
S1130B3040F4BF2B11F460FF04C06F5F7F4F8F4FF1
S1130B409F4F089557FD9058440F551F59F05F3F2C
S1130B5071F04795880F97FB991F61F09F3F79F0DB
S1130B6087950895121613061406551FF2CF46955D
S1130B70F1DF08C0161617061806991FF1CF8695DF
S1130B807105610508940895E894BB2766277727C3
S1130B90CB0197F9089566D008F48FEF08950BD030
S1130BA0C0CFB1DF28F0B6DF18F0952309F0A2CF4B
S1130BB0A7CF1124EACFC6DFA0F3959FD1F3950FF9
S1130BC050E0551F629FF001729FBB27F00DB11DCD
S1130BD0639FAA27F00DB11DAA1F649F6627B00D5D
S1130BE0A11D661F829F2227B00DA11D621F739F46
S1130BF0B00DA11D621F839FA00D611D221F749F54
S1130C003327A00D611D231F849F600D211D822F9A
S1130C10762F6A2F11249F5750408AF0E1F08823E1
S1130C204AF0EE0FFF1FBB1F661F771F881F9150EE
S1130C305040A9F79E3F510570F05CCFA6CF5F3FAF
S1130C40ECF3983EDCF3869577956795B795F79521
S1130C50E7959F5FC1F7FE2B880F911D96958795A9
S1130C6097F90895990F0008550FAA0BE0E8FEEFD5
S1130C7016161706E807F907C0F012161306E4075C
S1130C80F50798F0621B730B840B950B39F40A2655
S1130C9061F0232B242B252B21F408950A2609F433
S1130CA0A140A6958FEF811D811D0895991B79E0C0
S1130CB004C0991F961708F0961B881F7A95C9F7E8
S1130CC080950895AA1BBB1B51E107C0AA1FBB1F37
S1130CD0A617B70710F0A61BB70B881F991F5A95C4
S1130CE0A9F780959095BC01CD010895F894FFCFA4
S1130CF08B0037343163383532303936333D2F2A5F
S1110D002D2B77726F6E6720696E707574000C
S9030000FC
