S01200004B45595041445F6170702E73726563B4
S11300000C942A000C9489040C9447000C94470027
S11300100C9447000C9447000C9447000C94470040
S11300200C9447000C9447000C9447000C94470030
S11300300C9447000C94A1040C9447000C944700C2
S11300400C9447000C9447000C9447000C94470010
S11300500C94470011241FBECFE5D8E0DEBFCDBF0E
S113006010E0A0E6B0E0E8E2F2E102C005900D92F3
S1130070A838B107D9F710E0A8E8B0E001C01D9294
S1130080A43AB107E1F70E943D060C9412090C94BE
S113009000003E9A3898379A309A319A329A0895E5
S11300A0369A86B186FDFDCF24B135B1932F80E019
S11300B0820F911D0895369A86B186FDFDCF24B135
S11300C035B1932F80E0820F911D08958FEE85BB8B
S11300D01092970017C083B32091970090E002C05C
S11300E0959587952A95E2F780FD07C0E0919700E2
S11300F0F0E0E05AFF4F80810895809197008F5F70
S11301008093970080919700843028F387EB9BE0DD
S11301100197F1F700C000008FED85BB10929700A6
S113012017C083B32091970090E002C095958795FE
S11301302A95E2F780FD07C0E0919700F0E0E05ACD
S1130140FF4F84810895809197008F5F809397007B
S113015080919700843028F387EB9BE00197F1F7B7
S113016000C000008FEB85BB1092970017C083B3CB
S11301702091970090E002C0959587952A95E2F723
S113018080FD07C0E0919700F0E0E05AFF4F8085C2
S11301900895809197008F5F8093970080919700D6
S11301A0843028F387EB9BE00197F1F700C000004F
S11301B08FE785BB1092970017C083B320919700F7
S11301C090E002C0959587952A95E2F780FD07C0D7
S11301D0E0919700F0E0E05AFF4F84850895809104
S11301E097008F5F8093970080919700843028F365
S11301F087EB9BE00197F1F700C0000080E00895D1
S1130200A8E9B0E0E1E9F0E027E080E290E030E244
S11302108D939D9331932150D9F710928C000895BA
S11302203F924F925F926F927F928F929F92AF9282
S1130230BF92CF92DF92EF92FF920F931F93CF93CF
S1130240DF93CDB7DEB76D970FB6F894DEBF0FBE60
S1130250CDBF8DE361E00E94AB041982C090880099
S1130260D0908900E0908A00F0908B00C701B6011D
S11302700E94BD07AB01BC01809198009091990048
S11302808417950739F4CE82DF82E886F986AA249A
S1130290A39401C0AA24BB2400E09924BBE28B2EC2
S11302A09C0140E050E02A8F3B8F4C8F5D8F1DE214
S11302B0312E7DC18B3209F433C18C3220F48A3261
S11302C009F074C16EC08D3209F4E4C08F3209F0B4
S11302D06DC1EB2CFF24013031F5EE0CFF1CEE0C4C
S11302E0FF1C41E050E04C0F5D1FE40EF51EF601CB
S11302F0EE0FFF1FE656FF4F6081718180E090E0B2
S11303000E94E9079B01AC01F70165817681878131
S113031090850E945507DC01CB01F7018583968304
S1130320A783B08743C18701000F111F000F111F5E
S113033021E030E02C0F3D1F020F131FF601EE0FDA
S1130340FF1FAA20E1F4E856FF4F6081718180E02D
S113035090E00E94E9072B013C01F601EE0FFF1F1C
S1130360E656FF4F6081718180E090E00E94E907CA
S11303709B01AC01C301B2010E94550768C0E65657
S1130380FF4F6081718180E090E00E94E9079B014A
S1130390AC01F80165817681878190850E945507BB
S11303A06FC0EB2CFF24013039F5EE0CFF1CEE0C72
S11303B0FF1C21E030E02C0F3D1FE20EF31EF6017E
S11303C0EE0FFF1FE656FF4F6081718180E090E0E1
S11303D00E94E9079B01AC01F70165817681878161
S11303E090850E949B08DC01CB01F70185839683ED
S11303F0A783B087AA24DAC08701000F111F000F5A
S1130400111F21E030E02C0F3D1F020F131FF601D6
S1130410EE0FFF1FAA2019F5E856FF4F6081718186
S113042080E090E00E94E9072B013C01F601EE0F09
S1130430FF1FE656FF4F6081718180E090E00E94CB
S1130440E9079B01AC01C301B2010E949B08DC01D6
S1130450CB01F80185839683A783B08719C0E6563C
S1130460FF4F6081718180E090E00E94E9079B0169
S1130470AC01F80165817681878190850E949B0893
S1130480DC01CB01F80185839683A783B087AA2476
S113049001E08CC0AA2071F4992061F46A8D7B8DEF
S11304A08C8D9D8D0E94E907DC01CB018E839F8397
S11304B0A887B987B3940894C11CD11CF601EF56E0
S11304C0FF4F8081803249F0013029F48D3229F0C8
S11304D08B3209F502C00023F1F40B2D10E0000F5C
S11304E0111F000F111F21E030E02C0F3D1F020FE0
S11304F0131FF601EE0FFF1FE856FF4F6081718155
S113050080E090E00E94E907DC01CB01F8018583DB
S11305109683A783B087FE01EB0DF11D308245C0A1
S1130520AA2071F4992061F46A8D7B8D8C8D9D8D48
S11305300E94E907DC01CB018E839F83A887B987DA
S1130540B3940894C11CD11CF601EF56FF4F80816F
S1130550803249F0013029F48D3229F08B3209F5CB
S113056002C00023F1F40B2D10E0000F111F000F47
S1130570111F21E030E02C0F3D1F020F131FF60165
S1130580EE0FFF1FE856FF4F6081718180E090E01D
S11305900E94E907DC01CB01F80185839683A783D8
S11305A0B087FE01EB0DF11D808200E09394C92C0D
S11305B0DD24F601EF56FF4F8081803209F07ACEB8
S11305C08981882371F0EE80CF80B884A9846091FA
S11305D088007091890080918A0090918B0000E0DE
S11305E044C08E819F81A885B98551C0002321F420
S11305F06E2D7C2D8B2D9A2D2B3219F02D32A1F5D9
S11306001AC03196EE0FFF1FEE0FFF1F21E030E0FE
S11306102C0F3D1FE20FF31F382F292F862F972F02
S1130620A32FB22FBC01CD0125813681478150858E
S11306300E94ED0619C03196EE0FFF1FEE0FFF1F4B
S113064041E050E04C0F5D1FE40FF51F382F292FB8
S1130650862F972FA32FB22FBC01CD012581368180
S1130660478150850E94EC060F5FE02FF0E0A1E087
S1130670B0E0AC0FBD1FAE0FBF1F2C91222309F0B9
S1130680B5CF382F292F862F972FA32FB22F8093E2
S1130690880090938900A0938A00B0938B0081E036
S11306A060E00E94AB0460918800709189008091A1
S11306B08A0090918B000E948F050E9400016D9624
S11306C00FB6F894DEBF0FBECDBFDF91CF911F915F
S11306D00F91FF90EF90DF90CF90BF90AF909F90DD
S11306E08F907F906F905F904F903F90089580EF30
S11306F084BB8FE085BB0E9400010895209198007F
S1130700309199002032310531F1E0918C00F0E014
S1130710EE0FFF1FE856FF4F20813181243631054B
S113072088F4DC014C91C901880F991F63E0220F02
S1130730331F6A95E1F7820F931F840F911D9183F4
S1130740808309C081E060E00E94AB040E94000144
S113075081E080938D008DE890E00895803319F056
S11307608A3020F006C0109270003BC08093700065
S113077038C08D3261F08E3228F48A3241F08B32E7
S113078051F505C08F3219F08D3329F50CC08093D3
S11307907000E0918C00F0E0EF56FF4F8091700004
S11307A0808383E219C00E94100115C080E790E0A5
S11307B00E947E0313C080E790E00E947E03E091D4
S11307C08C00F0E0EE0FFF1FE856FF4F80917000A1
S11307D08083118203C080E28093700080E790E000
S11307E00895E0918C00F0E0EE0FFF1FE856FF4FF4
S11307F08081918180329105C9F6DDCFCF92DF925D
S1130800EF92FF921F93CF93DF938FE799EAA3E0D0
S113081081509040A040E1F700C000000E946600B3
S1130820C82F882309F46DC0209198003091990055
S11308302032310521F481E060E00E94AB048C2F6A
S11308400E94AE03DC018C91803209F45AC08332D9
S113085021F090E00E94410554C010918C00812F3A
S113086090E0FC01EE0FFF1FE856FF4F208131811D
S11308702032310521F08F569F4FFC0132C0C090C9
S11308808800D0908900E0908A00F0908B00C1E04D
S1130890D0E0C701B60120E030E0A9010E94510771
S11308A0882311F4C0E0D0E081E090E0112311F03E
S11308B080E090E08C239D230097E9F0C701B60106
S11308C00E94BD07DC01CB019093990080939800AE
S11308D0C701B6010E948F05E0918C00F0E0EF564D
S11308E0FF4F808161E00E94AB0480918C008F5F98
S11308F080938C0006C081E060E00E94AB040E94FB
S11309000001DF91CF911F91FF90EF90DF90CF9086
S113091008951F920F920FB60F9211248F93809116
S11309208E008F5F80938E0080918E00843019F446
S113093081E080938E008F910F900FBE0F901F90D7
S113094018951F920F920FB60F9211240F900FBE9D
S11309500F901F901895613011F4C19A01C0C1988D
S113096087FF02C0DF9A01C0DF98982F9295969571
S11309709695937090FF02C0DE9A01C0DE98982F7E
S113098092959695977090FF02C0DD9A01C0DD980C
S1130990982F92959F7090FF02C0DC9A01C0DC985A
S11309A0C39AE7EBFBE03197F1F700C00000C3986E
S11309B0E7EBFBE03197F1F700C00000982F969524
S11309C09695969590FF02C0DF9A01C0DF98982F04
S11309D09695969590FF02C0DE9A01C0DE98982FF6
S11309E0969590FF02C0DD9A01C0DD9880FF02C099
S11309F0DC9A01C0DC98C39A87EB9BE00197F1F77E
S1130A0000C00000C398E7EBFBE03197F1F700C0AA
S1130A1000000895D49AD59AD69AD79AB99ABA9AD0
S1130A20BB9AC29882E060E00E94AB0481E060E07F
S1130A300E94AB048CE060E00E94AB0486E060E0BE
S1130A400E94AB0480E860E00E94AB048FE59AEE5C
S1130A500197F1F700C0000008951F93CF93DF932F
S1130A60EC0110E004C061E00E94AB041F5FFE01D2
S1130A70E10FF11D80818823B1F7DF91CF911F91A0
S1130A800895DF92EF92FF920F931F93CF93DF931A
S1130A90CDB7DEB72A970FB6F894DEBF0FBECDBF31
S1130AA0009729F480E361E00E94AB042AC09E0110
S1130AB02F5F3F4FF9010AE010E0DE2ED21AB80191
S1130AC00E94FE088193CB010097B9F700E010E083
S1130AD08D2D992787FD90957E010894E11CF11CCA
S1130AE0E80EF91E0AC0F701E00FF11F8081805D56
S1130AF061E00E94AB04015010408D2D800F8F3FA8
S1130B0091F72A960FB6F894DEBF0FBECDBFDF91E2
S1130B10CF911F910F91FF90EF90DF900895CF92A6
S1130B20DF92EF92FF92CF93DF936B017C0120E081
S1130B3030E0A9010E94510787FF08C08DE261E0FF
S1130B400E94AB04F7FAF094F7F8F094C701B601E9
S1130B500E94BD07DC01CB01EC010E9441058EE23D
S1130B6061E00E94AB04BE0180E090E00E94E907CE
S1130B709B01AC01C701B6010E94EC0620E030E005
S1130B804AE754E40E949B080E94BD07DC01CB01A4
S1130B900E944105DF91CF91FF90EF90DF90CF90BD
S1130BA008958FB580688FBD8FB580628FBD8FB576
S1130BB081608FBD8FB582608FBD8EB588608EBD1C
S1130BC08EB581608EBD0895BC0180E090E00E94E6
S1130BD0E90724E13EEA43E251E40E949B080E94B3
S1130BE0BD07CB0185569040873C910530F488EED3
S1130BF093E09BBD8ABD19BC18BCCB018D529140BA
S1130C0021E08B32920740F48CEB92E09BBD8ABDCD
S1130C108CE291E099BD88BDCB018955924021E0D9
S1130C208B32920748F48CE291E09BBD8ABD8CEB39
S1130C3092E099BD88BD089583E06538780730F067
S1130C401BBC1ABC88EE93E099BD88BD08958DE461
S1130C5089B9539A549A579A80B5826080BD80B5F9
S1130C60846080BD789408959BB195FFFDCF8CB9C5
S1130C7008955F9BFECF8CB108958C9A8F9A8E9ABB
S1130C808D9A8B9A85B78E7F85BF85B7826085BF25
S1130C908BB780648BBF78940E9477030E94D10540
S1130CA00E9449000E9427060E940A0510928F00A4
S1130CB010928E00C0E010E0D0E080918E000E947F
S1130CC034060E94390680938F0080918F00813012
S1130CD059F58FB580628FBD3898DD2341F481E0EA
S1130CE060E00E94AB0481E790E00E942D058FE252
S1130CF095E70197F1F700C000000E945B00BC017A
S1130D0080E090E00E94E9072DE032E348EC5DE3E7
S1130D100E949B080E94BD07DC01CB010E94E405F0
S1130D20C0E010E0D1E0C9CF80918F008230B9F5E6
S1130D30389A8FB58F7D8FBD80E090E00E94E405E6
S1130D40112341F481E060E00E94AB0488E790E065
S1130D500E942D058FE799EAA3E081509040A040BE
S1130D60E1F700C000000E945B00BC0180E090E05D
S1130D700E94E9072DE032E348EC5DE30E949B0802
S1130D800E94BD07633340F0939AAFE2B5E7119731
S1130D90F1F700C0000001C0939811E08DCF80915D
S1130DA08F00833009F089CF9398CC2349F481E0F4
S1130DB060E00E94AB0480E890E00E942D05C1E051
S1130DC08FE799EAA3E081509040A040E1F700C08A
S1130DD000000E94FE0371CF5058BB27AA270ED0F3
S1130DE070C161D130F066D120F031F49F3F11F42D
S1130DF01EF456C10EF4E095E7FB4CC1E92F72D105
S1130E0080F3BA17620773078407950718F071F423
S1130E109EF58AC10EF4E0950B2EBA2FA02D0B017E
S1130E20B90190010C01CA01A0011124FF27591B2B
S1130E3099F0593F50F4503E68F11A16F040A22F31
S1130E40232F342F4427585FF3CF469537952795A2
S1130E50A795F0405395C9F77EF41F16BA0B620BA1
S1130E60730B840BBAF09150A1F0FF0FBB1F661FE8
S1130E70771F881FC2F70EC0BA0F621F731F841F2B
S1130E8048F4879577956795B795F7959E3F08F051
S1130E90B3CF9395880F08F09927EE0F9795879510
S1130EA00895D4D008F481E008950CD00AC102D189
S1130EB040F0F9D030F021F45F3F19F0EBC051114C
S1130EC034C1EEC00FD198F39923C9F35523B1F37C
S1130ED0951B550BBB27AA2762177307840738F0A5
S1130EE09F5F5F4F220F331F441FAA1FA9F333D004
S1130EF00E2E3AF0E0E830D091505040E695001CB8
S1130F00CAF729D0FE2F27D0660F771F881FBB1F73
S1130F10261737074807AB07B0E809F0BB0B802D4D
S1130F20BF01FF2793585F4F2AF09E3F510568F099
S1130F30B1C0FBC05F3FECF3983EDCF38695779538
S1130F406795B795F7959F5FC9F7880F911D96959B
S1130F50879597F90895E1E0660F771F881FBB1FF7
S1130F60621773078407BA0720F0621B730B840BA4
S1130F70BA0BEE1F88F7E0950895BCD088F09F5710
S1130F8090F0B92F9927B751A0F0D1F0660F771FD1
S1130F90881F991F1AF0BA95C9F712C0B13081F0B1
S1130FA0C3D0B1E00895C0C0672F782F8827B85FF9
S1130FB039F0B93FCCF3869577956795B395D9F712
S1130FC03EF490958095709561957F4F8F4F9F4F1C
S1130FD00895E89409C097FB3EF490958095709528
S1130FE061957F4F8F4F9F4F9923A9F0F92F96E971
S1130FF0BB279395F695879577956795B795F111E6
S1131000F8CFFAF4BB0F11F460FF1BC06F5F7F4F82
S11310108F4F9F4F16C0882311F096E911C0772394
S113102021F09EE8872F762F05C0662371F096E89D
S1131030862F70E060E02AF09A95660F771F881F6C
S1131040DAF7880F9695879597F90895990F000810
S1131050550FAA0BE0E8FEEF16161706E807F90786
S1131060C0F012161306E407F50798F0621B730B21
S1131070840B950B39F40A2661F0232B242B252BA2
S113108021F408950A2609F4A140A6958FEF811D45
S1131090811D089597F99F6780E870E060E00895E6
S11310A09FEF80EC089500240A941616170618067C
S11310B00906089500240A94121613061406050658
S11310C00895092E0394000C11F4882352F0BB0FE9
S11310D040F4BF2B11F460FF04C06F5F7F4F8F4F4C
S11310E09F4F089557FD9058440F551F59F05F3F87
S11310F071F04795880F97FB991F61F09F3F79F036
S113110087950895121613061406551FF2CF4695B7
S1131110F1DF08C0161617061806991FF1CF869539
S11311207105610508940895E894BB27662777271D
S1131130CB0197F908950BD0C4CFB5DF28F0BADFFF
S113114018F0952309F0A6CFABCF1124EECFCADF58
S1131150A0F3959FD1F3950F50E0551F629FF001C6
S1131160729FBB27F00DB11D639FAA27F00DB11D1F
S1131170AA1F649F6627B00DA11D661F829F2227A8
S1131180B00DA11D621F739FB00DA11D621F839F2F
S1131190A00D611D221F749F3327A00D611D231F05
S11311A0849F600D211D822F762F6A2F11249F5753
S11311B050408AF0E1F088234AF0EE0FFF1FBB1F76
S11311C0661F771F881F91505040A9F79E3F510515
S11311D070F060CFAACF5F3FECF3983EDCF38695C6
S11311E077956795B795F795E7959F5FC1F7FE2BC0
S11311F0880F911D9695879597F90895AA1BBB1B97
S113120051E107C0AA1FBB1FA617B70710F0A61B02
S1131210B70B881F991F5A95A9F780959095BC0123
S10B1220CD010895F894FFCFFD
S113122801040763020508300306093D2F2A2D2B04
S1131238206D6F64652031006D6F64652032200075
S10B12486D6F646520330000A2
S9030000FC
